:10058B00E4F593F594F591F592F595F596F5B1F5AE
:10059B00B2F5B3F5B4F5C9F5CAF5CBF5CCF5E1F584
:0205AB00E2224A
:0B06570012058B1204BA12017580FB23
:1004E800EF1FAA0670011E4A6021E4FCFDC3ED94CB
:1004F80009EC940050EAE4FBFA0BBB00010AEB6438
:0B050800554A70F50DBD00010C80E2AB
:0105130022C5
:0A066200EF1F70011E144E70F72206
:1005EF00E4FEEFA806088002C333D8FC30E704D23C
:0D05FF00A68002C2A6D2A7C2A70EBE08E5C4
:01060C0022CB
:1005CF00D2A5EF70047FF880027FFA1205EFED5489
:1005DF00F0FF1205EFEDC454F0FF1205EFC2A52294
:10064200120629FD600E7F011205CF740129F9E41B
:050652003AFA80EC22E1
:1004BA007F327E001204E8C2B7D2B77D30E4FF1261
:1004CA0005CF7F327E001204E87D0CE4FF1205CFCF
:0E04DA007F327E001204E87D01E4FF0205CFB0
:1005AD00BF01047D808013BF02047D90800CBF03CA
:1005BD00047D888005BF04077D98E4FF1205CF02F6
:0205CD000642E4
:1000030061540000696E6974000000000000000084
:1000130000000000002020D0A1C7F2BFD8D6C6CF71
:10002300B5CDB30000002020000000000000000058
:10003300000000000000002000000000000000009D
:10004300000000000000000020205365745F646915
:100053007374616E63650000004578706563743A7C
:100063003030000000000000000044697374616ECA
:1000730063653A00000000000000002020202020DB
:10008300202020202020206E6578740020204163EA
:1000930074696F6E3100000000000000003332000D
:1000A30000000000000000000000000000003333E7
:1000B30000000000000000000000000000000062DB
:1000C30061636B20202020202020206E657874003F
:1000D3002020416374696F6E32000000000000004D
:1000E30000343200000000000000000000000000A7
:1000F3000000343300000000000000000000000096
:100103000000006261636B20202020202020206EED
:10011300657874002020416374696F6E33000000BA
:100123000000000000353200000000000000000065
:100133000000000000003533000000000000000054
:10014300000000000000006261636B20202020207B
:100153002020206E6578740005090000000000016E
:020163000F008B
:10027F00E4F518F519F51AF51B1204778F09E5093E
:10028F0024FE601714601F14604124037078E4F596
:10029F000F7D01FF1205CFE4F50A22E50E700375FD
:1002AF000E10150E800A050EE50EB41003E4F50EC0
:1002BF00E50E75F00A84E5F0243090005DF0E50E50
:1002CF0075F00A84243090005CF02275080FE50861
:1002DF0075F00A84E5F02430900070F0E50875F0B1
:1002EF000A84243090006FF07B017A0079667F03D7
:1002FF001205AD120477BF04D2750F027D01E4FF22
:06030F001205CFE4F50920
:0103150022C5
:100514001204778F09E50924FC601224037018750E
:100524000F017D01E4FF1205CFE4F50A22750F03E4
:080534007D01E4FF1205CF2256
:10053C001204778F09E50924FC60122403701875E6
:10054C000F027D01E4FF1205CFE4F50A22750F04BA
:08055C007D01E4FF1205CF222E
:100564001204778F09E50924FC60122403701775BF
:100574000F037D01E4FF1205CFE4F50A22E4F50F31
:070584007D01FF1205CF22EB
:10017500E50F1460481460741470030202201470B3
:100185000302024F2404600302027E7D01E4FF1294
:1001950005CF7F057E001204E87B017A0079117F87
:1001A500011205AD7FF47E011204E87D01E4FF1222
:1001B50005CF7F057E001204E8750F01227B017AC9
:1001C5000079447F011205AD7B017A0079557F02E4
:1001D5001205AD7B017A0079667F031205AD7B01BF
:1001E5007A0079777F041205AD02027F7B017A00E0
:1001F50079887F011205AD7B017A0079997F02121A
:1002050005AD7B017A0079AA7F031205AD7B017AE2
:100215000079BB7F041205AD0205147B017A0079D4
:10022500CC7F011205AD7B017A0079DD7F021205D5
:10023500AD7B017A0079EE7F031205AD7B017A0073
:1002450079FF7F041205AD02053C7B017A01791027
:100255007F011205AD7B017A0179217F021205AD7F
:100265007B017A0179327F031205AD7B017A017931
:0A027500437F041205AD1205642258
:0F01650001150001160001170004117FBFDFEF25
:1003A200751C64E4F51574112515F8E6F5F865F881
:1003B200604E7F887E131204E874112515F8E665F5
:1003C200F8603D85F817E4F516E51720E02374116F
:1003D2002515F8E6B5F8F77F647E001204E874117B
:1003E2002515F8E6B5F8E7E51625E025E02515FF21
:1003F20022E517C313F5170516E516C3940440C981
:0B0402000515E515C39404409D7FFF25
:01040D0022CC
:10060D00E4F51574112515F8E6F5F865F860037F26
:0C061D0001220515E515B404EA7F002257
:1004770020B20D7F5A7E001204E820B2037F0122CA
:1004870020CA0D7F5A7E001204E820CA037F022289
:1004970020C90D7F5A7E001204E820C9037F03227A
:1004A70020C80D7F5A7E001204E820C8037F04226B
:0304B7007F0022A1
:10040E00EF1460091460322402705D8024C2CD7F27
:10041E003C7E001204E8D2CD7F3C7E001204E8C27E
:10042E00CD7F3C7E001204E8D2CD7F3C7E001204CC
:10043E00E8C2CD7F3C7E00802AC2CD7FF47E0112C1
:10044E0004E8D2CD7FC87E001204E8C2CD7FF47ED0
:10045E00011204E8D2CD7FC87E001204E8C2CD7F1F
:09046E00F47E011204E8D2CD2253
:03000000020316E2
:0C031600787FE4F6D8FD75811C02035DC1
:10062900BB010689828A83E0225002E722BBFE02CF
:09063900E32289828A83E4932202
:10032200020657E493A3F8E493A34003F68001F294
:1003320008DFF48029E493A3F85407240CC8C333DC
:10034200C4540F4420C8834004F456800146F6DFAB
:10035200E4800B0102040810204080900003E47E38
:10036200019360BCA3FF543F30E509541FFEE493A0
:10037200A360010ECF54C025E060A840B8E493A367
:10038200FAE493A3F8E493A3C8C582C8CAC583CA92
:10039200F0A3C8C582C8CAC583CADFE9DEE780BE4A
:01017400008A
:00000001FF
