:100C1500E4F593F594F591F592F595F596F5B1F51D
:100C2500B2F5B3F5B4F5C9F5CAF5CBF5CCF5E1F5F3
:100C3500E27580FF7590FF75A0FF75B0FF75C0FF69
:0A0C450075C8FF75E8FF75F8FF227F
:100DD100120C15120C4F120C83120BC8120E5F125B
:0D0DE10000031200A2120E6E12066C80FBC1
:100CDE00EF1FAA0670011E4A6021E4FCFDC3ED94CD
:100CEE0009EC940050EAE4FBFA0BBB00010AEB643A
:0B0CFE00554A70F50DBD00010C80E2AE
:010D090022C7
:0A0E7C00EF1F70011E144E70F722E4
:100DB300E4FEEFA806088002C333D8FC30E704D270
:0D0DC300A68002C2A6D2A7C2A70EBE08E5F8
:010DD0002200
:100D9300D2A5EF70047FF880027FFA120DB3ED54F1
:100DA300F0FF120DB3EDC454F0FF120DB3C2A52230
:100E3B00120435FD600E7F01120D93740129F9E444
:050E4B003AFA80EC22E0
:100C83007F327E00120CDEC2B7D2B77D30E4FF1292
:100C93000D937F327E00120CDE7D0CE4FF120D9368
:0E0CA3007F327E00120CDE7D01E4FF020D9315
:100D2F00BF01047D808013BF02047D90800CBF0340
:100D3F00047D888005BF04077D98E4FF120D9302A0
:020D4F000E3B59
:1004E700022B000061540000696E6974000000006F
:1004F7000000000000000000002020D0A1C7F2BFCC
:10050700D8D6C6CFB5CDB30000002020000000002C
:1005170000000000000000000000002000000000B4
:1005270000000000000000000000000020205365CC
:10053700745F64697374616E636500000045787069
:100547006563743A30300000000000000000446921
:100557007374616E63653A202020636D000000208C
:1005670020202020202020202020206E6578740065
:100577002020416374696F6E3100000000000000A5
:1005870000333200000000000000000000000000FF
:1005970000003333000000000000000000000000EE
:1005A7000000006261636B20202020202020206E45
:1005B700657874002020416374696F6E3200000013
:1005C70000000000003432000000000000000000BE
:1005D700000000000000343320200000000000006D
:1005E700000000000000006261636B2020202020D3
:1005F7002020206E657874002020416374696F6E37
:100607003300000000000000003532000000000049
:10061700000000000000000000003533000000006B
:1006270000000000000000000000006261636B2012
:10063700202020202020206E6578740005310000DE
:0D064700000000013E0005391400050A0FF7
:1007D200E4F53FF540F541F542120A7C8F31E531EF
:1007E20024FE601514601D14604424036003020893
:1007F200FDE4F53E7D010208F9E536700375362900
:100802001536800A0536E536B42903E4F536E536B1
:1008120075F00A120413AFF0EF243090005DF0E59A
:100822003675F00A120413243090005CF022752D04
:1008320000752E0FE4F54AF549F548F547F54EF5F2
:100842004DF54CF54BFFFE7D807C3F120D72E52E7F
:1008520065387004E52D65376021AC36EC12035E15
:100862008F488E478D468C45E4F549AF2EAE2D124A
:1008720008FE120E50852D37852E38D3E52E9400B2
:10088200E52D64809480401E90006F742BF0AE2D95
:10089200AF2E7C007D0A12044EED2430900071F0E0
:1008A200AE2DAF2E8027C3E4952EF530E4952DF5BD
:1008B2002F90006F742DF0AE2FAF307C007D0A12A6
:1008C200044EED2430900071F0AE2FAF307C007DED
:1008D2000A12044EEF2430900070F07B017A007906
:1008E200667F03120D2F120A7CEF64046003020874
:0B08F20050753E027D01E4FF120D93E3
:0108FD0022D8
:100D5100120A7C8F31E53124FC6012240370117575
:100D61003E017D01E4FF120D93E4F53222753E034D
:010D7100225F
:100D0A00120A7C8F31E53124FC600B2403701575BF
:100D1A003E02E4F532227B017A0179217F02120D2B
:050D2A002F753E0422BC
:100E0A00120A7C8F31E53124FC600B2403700A75C9
:0A0E1A003E03E4F53222E4F53E2227
:10066C00E53E14604B14700302070214700302077A
:10067C003B147003020774240460030207D17D014C
:10068C00E4FF120D937F057E00120CDE7B017A00D5
:10069C0079117F01120D2F7FE87E03120CDE7D0194
:1006AC00E4FF120D937F057E00120CDE753E0122D5
:1006BC00E53AD39539403C7F647E00120CDE7B0119
:1006CC007A0079447F01120D2F7B017A0079557FD6
:1006DC0002120D2F7B017A0079667F03120D2F7B9E
:1006EC00017A0079777F04120D2FE4F53A7F64FECE
:1006FC00120CDE0207D2E53BD39539402F7B017AF1
:10070C000079887F01120D2F7B017A0079997F0285
:10071C00120D2F7B017A0079AA7F03120D2F7B011A
:10072C007A0079BB7F04120D2FE4F53B020D51E5E5
:10073C003CD39539402F7B017A0079CC7F01120D87
:10074C002F7B017A0079DD7F02120D2F7B017A005D
:10075C0079EE7F03120D2F7B017A0079FF7F041253
:10076C000D2FE4F53C020D0AE53DD3953940537B42
:10077C00017A0179107F01120D2F7B017A01792109
:10078C007F02120D2F7B017A0179327F03120D2F1C
:10079C007B017A0179437F04120D2FAE2BAF2C7C99
:1007AC00007D0A12044EEF2430900121F0AE2BAFE5
:1007BC002C7C007D0A12044EED2430A3F0E4F53DB0
:0607CC00B281120E0A22A8
:0F06540001540001550001560004507FBFDFEF35
:100AF300755B64E4F55474502554F8E6F5F865F82D
:100B0300604E7F887E13120CDE74502554F8E66520
:100B1300F8603D85F856E4F555E55620E02374501A
:100B23002554F8E6B5F8F77F647E00120CDE7450A6
:100B33002554F8E6B5F8E7E55525E025E02554FF0B
:100B430022E556C313F5560555E555C3940440C92C
:0B0B53000554E554C39404409D7FFF4F
:010B5E002274
:100DEE00E4F55474502554F8E6F5F865F860037F81
:0C0DFE0001220554E554B404EA7F0022F1
:100A7C0020B21A7F787E00120CDE20B21030B2FD4C
:100A8C007F787E00120CDE30B2F37F012220CA1A6E
:100A9C007F787E00120CDE20CA1030CAFD7F787E73
:100AAC0000120CDE30CAF37F022220C91A7F787E36
:100ABC0000120CDE20C91030C9FD7F787E00120CAC
:100ACC00DE30C9F37F032220C81A7F787E00120C17
:100ADC00DE20C81030C8FD7F787E00120CDE30C8D6
:070AEC00F37F04227F0022CA
:100B5F00EF1460091460322402705D8024C2CD7FCF
:100B6F003C7E00120CDED2CD7F3C7E00120CDEC22A
:100B7F00CD7F3C7E00120CDED2CD7F3C7E00120C6E
:100B8F00DEC2CD7F3C7E00802AC2CD7FF47E011273
:100B9F000CDED2CD7FC87E00120CDEC2CD7FF47E7C
:100BAF0001120CDED2CD7FC87E00120CDEC2CD7FCB
:090BBF00F47E01120CDED2CD22FD
:080663000257000002590000DB
:0E0E6E00758E80C28BD2AAC28AD2AFD2BA22AF
:030013000209F8E7
:1009F800C0E0C0F0C083C082C0D075D000C000C0C5
:100A080001C002C003C004C005C006C00730B3045B
:100A1800D28E802BC28EAF8DEFAD8BF557EDF5588A
:100A2800758D00758B00AC57AD58E4120359E4FB83
:100A3800FA794878431202B71203928E598F5A6393
:100A4800E8FFC3E55A9464E5599400500CC3741741
:100A5800955AF52EE49559F52DD007D006D005D036
:100A680004D003D002D001D000D0D0D082D083D01F
:040A7800F0D0E032A8
:03000B00020E24BE
:100E2400C0E00529052CE52C7002052B053A053B8D
:070E3400053C053DD0E03252
:100BC800E4F508F50CF50BF50AF509F510F50FF540
:100BD8000EF50DF514F513F512F511F518F517F5D1
:100BE80016F515F519F51AF51BF51CF51DF51EF585
:100BF8001FF520F521F522F523F524752503752623
:0D0C0800E8F5297527077528D0752A1422F4
:100D72008F108E0F8D0E8C0D854A14854913854870
:100D820012854711854E18854D17854C16854B15D2
:010D9200223E
:1008FE00E54960030209F3E529C3952A5004E4FE95
:10090E00FF228F0885480C85470B85460A854509C9
:10091E00AC08E412035EAB0CAA0BA90AA8091200DC
:10092E00B91203928E198F1AC3E51A951CFDE5199B
:10093E00951BFCE4120359AB10AA0FA90EA80D12B9
:10094E0001AE1203928E1F8F20AC19AD1AE4120362
:10095E0059AB14AA13A912A8111201AE1203928E4A
:10096E00218F22C3E51A951CFFE519951BFEE51E86
:10097E0004FDEFA805088005C333CE33CED8F9FDAC
:10098E00AC06E4120359AB18AA17A916A815120142
:10099E00AE1203928E238F24E5202522FFE51F350C
:1009AE0021FEE5242FFFE5233EFED3EF9528EE959D
:1009BE0027400EE52824F6F526E52734FFF5258099
:1009CE0015D3EF9400EE940050087525037526E8B4
:1009DE0080048E258F2685191B851A1C851B1D8567
:0909EE001C1EE4F529AE25AF261C
:0109F70022DD
:100C4F0043BA8075F10075F60090FFF2E0F090FF67
:100C5F00F07407F0A374D0F090FF00E4F0A3F0A3BA
:100C6F00F0A37432F075F500D2AF43F50143F58070
:040C7F0043BA7F22D3
:0F0E500043BA8090FF02EEF0A3EFF043BA7F2287
:0300B300020CB18B
:100CB100C0E0C083C082C0D075D000C006C007E5C7
:100CC100F6600A53F6FE7FF47E01120E5063A0FF18
:0D0CD100D007D006D0D0D082D083D0E03242
:0F0E5F005389F0438E80758A63758CBFD28C22C5
:1000A200438E4053890FE4F58BF58DC28FC28E22A9
:05000300D2A9D2AF22DA
:1000B6000203FEE86480F8E933E83360110460F077
:1000C600ED33EC337009E8FCE9FDEAFEEBFF2204B0
:1000D60060DED3EB9FEA9EE99DE8C2E78CF0C2F7AB
:1000E60095F0400CE8CCF8E9CDF9EACEFAEBCFFB77
:1000F6001203C985D0F05804700320D5B3E8047004
:10010600075002B2D502040892D5EC0460F7E4CC9D
:10011600C0E0C398F8603B94186008400DD0E0FB3F
:100126000203E0E4FBFAC9FC8028E830E406E4C9EF
:10013600FBE4CAFCE830E305E4C9CACBFCE8540793
:100146006010F8C3E913F9EA13FAEB13FBEC13FC9E
:10015600D8F130F52FC3E49CFCEF9BFFEE9AFEED41
:1001660099FDD0E0FBEF4E4D4C701222DB030204EA
:1001760005EC2CFCEF33FFEE33FEED33FDED30E7FF
:10018600EB0203E0EF2BFFEE3AFEED39FDD0E0FB8C
:1001960050130BBB0003020408ED13FDEE13FEEF34
:0801A60013FFEC13FC0203E05F
:1001AE00EC4D6011E8497017ED33EC3304600DE44B
:1001BE00FCFFFEFD22E933E8330470F80203FE1261
:1001CE0003C958046009E4CC248150062850090262
:1001DE000408284003020405C0E0EB4A7044B980CD
:1001EE0006D0E0FB0203F4EF4E701CBD8008EBFF5F
:1001FE00EAFEE9FD80EBE98DF0A4FEE5F002029740
:10020E00E9CDF9EAFEEBFFEF89F0A4FCE5F0CE892B
:10021E00F0A42EFFE435F0CD89F0A42DFEE435F0E8
:10022E008067EF4E7005BD80D780C3EF8BF0A4AC16
:10023E00F0EE8BF0A42CFCE435F0F8EF8AF0A42C51
:10024E00E5F038FCE433CB8DF0A42CFCE5F03BF864
:10025E00EE8AF0A42CFCE5F038F8E433CF89F0A454
:10026E002CFCE5F038CF3400CE89F0A42FFFE5F05A
:10027E003EFEE433C98DF0A42EFEE5F039CD8AF0B2
:10028E00A42FFFE5F03EFEE43DFD33D0E0FB50072A
:10029E000BBB000F020408EC2CFCEF33FFEE33FE19
:0602AE00ED33FD0203E048
:1002B400020408EC5D046005E8590470030203FEBF
:1002C4001203C9580460F6EC4860F2EC7004FDFEB9
:1002D400FF22C860DB2481C85009C398600250061D
:1002E4000204059850CAF582E9294B4A7005AB828D
:1002F4000203F475F0007C1A7880C3EF9BEE9AED4C
:1003040099400DC3EF9BFFEE9AFEED99FDE842F094
:10031400DC23ACF0D0E0FFD0E0FED0E0FDAB8220E7
:10032400E7101BEB60BAEC2CFCEF33FFEE33FEED71
:1003340033FD0203E0E803F830E705C0F075F00090
:10034400EF2FFFEE33FEED33FD40B830E7C280AA55
:1003540075F020800E75F010800575F0087D007E24
:10036400007F003392D530D503120484EC3340105F
:10037400EF33FFEE33FEED33FDEC33FCD5F0ED222D
:0E038400E5F0247EA2D513CC92E7CDCEFF2269
:10039200EDD2E7CD33EC3392D524814006E4FFFE63
:1003A200FDFC22FCE4CFCECDCC24E0501174FF80C2
:1003B200EDC3CC13CCCD13CDCE13CECF13CF04705F
:0703C200F030D5DE020484D7
:1003C900E9D2E7C933E833F892D5EDD2E7CD33EC7A
:0703D90033FC5002B2D522F3
:1003E000EC30E7100FBF000C0EBE00080DBD00047E
:1003F0000BEB6014A2D5EB13FCED92E7FD2274FF2A
:10040000FCFDFEFF22E480F8A2D574FF13FC7D8082
:03041000E480EF96
:03000000020016E5
:0C001600787FE4F6D8FD75815B02005D88
:10041300C2D530F707B2D563F0FF05F030E70CB271
:10042300D5F4048463F0FF05F080018430D502F431
:020433000422A1
:10043500BB010689828A83E0225002E722BBFE02C5
:09044500E32289828A83E49322F8
:10044E00C2D5EC30E709B2D5E4C39DFDE49CFCEEC9
:10045E0030E715B2D5E4C39FFFE49EFE120492C3AB
:10046E00E49DFDE49CFC800312049230D507C3E4A6
:06047E009FFFE49EFE2238
:0E048400C3E49FFFE49EFEE49DFDE49CFC2289
:10002200020DD1E493A3F8E493A34003F68001F216
:1000320008DFF48029E493A3F85407240CC8C333DF
:10004200C4540F4420C8834004F456800146F6DFAE
:10005200E4800B01020408102040809004E7E47E53
:10006200019360BCA3FF543F30E509541FFEE493A3
:10007200A360010ECF54C025E060A840B8E493A36A
:10008200FAE493A3F8E493A3C8C582C8CAC583CA95
:10009200F0A3C8C582C8CAC583CADFE9DEE780BE4D
:01066B00008E
:10049200BC000BBE0029EF8DF084FFADF022E4CC4E
:1004A200F875F008EF2FFFEE33FEEC33FCEE9DEC17
:1004B200984005FCEE9DFE0FD5F0E9E4CEFD22ED5D
:1004C200F8F5F0EE8420D21CFEADF075F008EF2FA7
:1004D200FFED33FD4007985006D5F0F222C398FD98
:0504E2000FD5F0EA2235
:00000001FF
