:100AD600E4F593F594F591F592F595F596F5B1F55E
:100AE600B2F5B3F5B4F5C9F5CAF5CBF5CCF5E1F534
:100AF600E27580FF7590FF75A0FF75B0FF75C0FFAA
:0A0B060075C8FF75E8FF75F8FF22BF
:100C9200120AD6120B10120B44120A84120D3012D1
:0D0CA2000003120D11120D3F12057480FBAE
:100B9F00EF1FAA0670011E4A6021E4FCFDC3ED940D
:100BAF0009EC940050EAE4FBFA0BBB00010AEB647A
:0B0BBF00554A70F50DBD00010C80E2EE
:010BCA002208
:0A00A800EF1F70011E144E70F722C6
:100C7400E4FEEFA806088002C333D8FC30E704D2B0
:0D0C8400A68002C2A6D2A7C2A70EBE08E538
:010C91002240
:100C5400D2A5EF70047FF880027FFA120C74ED5471
:100C6400F0FF120C74EDC454F0FF120C74C2A522F0
:100CFC0012033DFD600E7F01120C54740129F9E4BE
:050D0C003AFA80EC2220
:100B44007F327E00120B9FC2B7D2B77D30E4FF1212
:100B54000C547F327E00120B9F7D0CE4FF120C5468
:0E0B64007F327E00120B9F7D01E4FF020C54D5
:100BF000BF01047D808013BF02047D90800CBF0381
:100C0000047D888005BF04077D98E4FF120C540220
:020C10000CFCDA
:1003EF00022E000061540000696E69740000000065
:1003FF000000000000000000002020D0A1C7F2BFC5
:10040F00D8D6C6CFB5CDB300000020200000000025
:10041F0000000000000000000000002000000000AD
:10042F0000000000000000000000000020205365C5
:10043F00745F64697374616E636500000045787062
:10044F006563743A3030000000000000000044691A
:10045F007374616E63653A202020636D0000002085
:10046F0020202020202020202020206E657874005E
:10047F002020416374696F6E31000000000000009E
:10048F0000333200000000000000000000000000F8
:10049F0000003333000000000000000000000000E7
:1004AF000000006261636B20202020202020206E3E
:1004BF00657874002020416374696F6E320000000C
:1004CF0000000000003432000000000000000000B7
:1004DF000000000000003433202000000000000066
:1004EF00000000000000006261636B2020202020CC
:1004FF002020206E657874002020416374696F6E30
:10050F003300000000000000003532000000000042
:10051F000000000000000000000035330000000064
:10052F0000000000000000000000006261636B200B
:10053F00202020202020206E6578740005340000D4
:0D054F00000000014100053C1400050A0FEA
:1006D800E4F542F543F544F54512089C8F34E534BA
:1006E80024FE601514601D1460442403600302088E
:1006F8000FE4F5417D0102080BE5397003753929CE
:100708001539800A0539E539B42903E4F539E5399D
:1007180075F00A12031BAFF0EF243090005DF0E58E
:100728003975F00A12031B243090005CF022E4F5BE
:100738004DF54C754B80754A3FF551F550754F8016
:10074800754E3FFFFE7D807C3F120C33AF39EF338F
:1007580095E0FEC006C007AC30AD31EC1202618FE7
:100768004B8E4A8D498C48D007D006120927AF29ED
:10077800AE28120D21E531653B7004E530653A601D
:1007880071D3E5319400E53064809480401E900078
:100798006F742BF0AE30AF317C007D0A120356ED3A
:1007A8002430900071F0AE30AF318027C3E495312A
:1007B800F533E49530F53290006F742DF0AE32AF1A
:1007C800337C007D0A120356ED2430900071F0AEA0
:1007D80032AF337C007D0A120356EF24309000704C
:1007E800F07B017A0079667F03120BF085303A8539
:1007F800313B12089CEF6404600302075475410200
:070808007D01E4FF120C5416
:01080F0022C6
:100C120012089C8F34E53424FC6012240370117591
:100C220041017D01E4FF120C54E4F53522754103C4
:010C3200229F
:100BCB0012089C8F34E53424FC600B2403701575DC
:100BDB004102E4F535227B017A0179217F02120B68
:050BEB00F07541042239
:100CCB0012089C8F34E53424FC600B2403700A75E6
:0A0CDB004103E4F53522E4F541225F
:10057400E54114604B14700302060A14700302066A
:100584004314700302067C240460030206D77D0131
:10059400E4FF120C547F057E00120B9F7B017A004E
:1005A40079117F01120BF07FE87E03120B9F7D010E
:1005B400E4FF120C547F057E00120B9F754101224B
:1005C400E53DD3953C403C7F647E00120B9F7B014C
:1005D4007A0079447F01120BF07B017A0079557F10
:1005E40002120BF07B017A0079667F03120BF07B19
:1005F400017A0079777F04120BF0E4F53D7F64FE05
:10060400120B9F0206D8E53ED3953C402F7B017A1E
:100614000079887F01120BF07B017A0079997F02BF
:10062400120BF07B017A0079AA7F03120BF07B0195
:100634007A0079BB7F04120BF0E4F53E020C12E55C
:100644003FD3953C402F7B017A0079CC7F01120B7C
:10065400F07B017A0079DD7F02120BF07B017A00D6
:1006640079EE7F03120BF07B017A0079FF7F04128D
:100674000BF0E4F53F020BCBE540D3953C40517BB6
:10068400017A0179107F01120BF07B017A01792143
:100694007F02120BF07B017A0179327F03120BF097
:1006A4007B017A0179437F04120BF0AE2EAF2F7CCD
:1006B400007D0A120356EF2430900121F0AE2EAFD4
:1006C4002F7C007D0A120356ED2430A3F0E4F5409C
:0406D400120CCB2217
:0F055C0001570001580001590004537FBFDFEF22
:1009AF00755E64E4F55774532557F8E6F5F865F866
:1009BF00604E7F887E13120B9F74532557F8E665A0
:1009CF00F8603D85F859E4F558E55920E023745354
:1009DF002557F8E6B5F8F77F647E00120B9F745326
:1009EF002557F8E6B5F8E7E55825E025E02557FF48
:1009FF0022E559C313F5590558E558C3940440C966
:0B0A0F000557E557C39404409D7FFF8E
:010A1A0022B9
:100CAF00E4F55774532557F8E6F5F865F860037FB8
:0C0CBF0001220557E557B404EA7F00222B
:10089C0020B21F7F787E00120B9F20B215E4FF124E
:1008AC000A1B30B2FD7F787E00120B9F30B2F37FB3
:1008BC00012220CA1F7F787E00120B9F20CA15E4EC
:1008CC00FF120A1B30CAFD7F787E00120B9F30CAC4
:1008DC00F37F022220C91F7F787E00120B9F20C954
:1008EC0015E4FF120A1B30C9FD7F787E00120B9FA6
:1008FC0030C9F37F032220C81F7F787E00120B9F24
:10090C0020C815E4FF120A1B30C8FD7F787E001248
:0B091C000B9F30C8F37F04227F0022F5
:100A1B00EF1460091460322402705D8024C2CD7F14
:100A2B003C7E00120B9FD2CD7F3C7E00120B9FC2EF
:100A3B00CD7F3C7E00120B9FD2CD7F3C7E00120BF4
:100A4B009FC2CD7F3C7E00802AC2CD7FF47E0112F7
:100A5B000B9FD2CD7FC87E00120B9FC2CD7FF47E41
:100A6B0001120B9FD2CD7FC87E00120B9FC2CD7F90
:090A7B00F47E01120B9FD2CD2282
:08056B00025A0000025C0000CE
:0E0D3F00758E80C28BD2AAC28AD2AFD2BA22DF
:03001300020016D2
:10001600C0E0C0F0C083C082C0D075D000C000C0B0
:1000260001C002C003C004C005C006C00730B30447
:10003600D28E802BC28EAF8DEFAD8BF55AEDF55B70
:10004600758D00758B00AC5AAD5BE4120261E4FB62
:10005600FA794878431201BF12029A8E5C8F5D636B
:10006600E8FFC3E55D9464E55C9400501AAC5CADB2
:100076005DEC1202617B1F7A85798B783F1200B6A0
:1000860012029A8E308F31D007D006D005D004D018
:1000960003D002D001D000D0D0D082D083D0F0D00F
:0200A600E03246
:03000B00020CE5FF
:100CE500C0E0052C052FE52F7002052E053D053EBC
:070CF500053F0540D0E0328D
:100A8400E4F508F509F50DF50CF50BF50AF511F586
:100A940010F50FF50EF515F514F513F512F516F519
:100AA40017F518F519F51AF51BF51FF51EF51DF5C3
:100AB4001CF523F522F521F520F527F526F525F576
:100AC40024F528752932F52C752A07752BD0752D38
:020AD4001422EA
:100C33008F0D8E0C8D0B8C0A854D11854C10854BB9
:100C43000F854A0E855115855014854F13854E1215
:010C5300227E
:10092700C2A2D2A28F08AF4BAE4AAD49AC48120261
:100937009A8F09EF3395E0FEAD08ED3395E0FCC3E0
:10094700ED9FF517EC9EF516FCAD17E4120261ABAF
:100957000DAA0CA90BA80A1200B68F1F8E1E8D1D9B
:100967008C1CD3E54D952BE54C952A400EE52B24A1
:10097700FFF529E52A34FFF5288019D3E54D9400C2
:10098700E54C940050087528037529E88006854CC6
:1009970028854D2985161885171985181A85191B55
:0709A700E4F52CAE28AF2996
:0109AE002226
:100B100043BA8075F10075F60090FFF2E0F090FFA7
:100B2000F07407F0A374D0F090FF00E4F0A3F0A3FA
:100B3000F0A37405F075F500D2AF43F50143F580DD
:040B400043BA7F2213
:0F0D210043BA8090FF02EEF0A3EFF043BA7F22B7
:0300B300020B72CB
:100B7200C0E0C083C082C0D075D000C006C007E507
:100B8200F6600A53F6FE7FF47E01120D2163A0FF88
:0D0B9200D007D006D0D0D082D083D0E03282
:0F0D30005389F0438E80758A63758CBFD28C22F5
:100D1100438E4053890FE4F58BF58DC28FC28E222D
:05000300D2A9D2AF22DA
:1000B600EC4D6011E8497017ED33EC3304600DE444
:1000C600FCFFFEFD22E933E8330470F80203061252
:1000D60002D158046009E4CC248150062850090254
:1000E600031028400302030DC0E0EB4A7044B980B8
:1000F60006D0E0FB0202FCEF4E701CBD8008EBFF51
:10010600EAFEE9FD80EBE98DF0A4FEE5F002019F31
:10011600E9CDF9EAFEEBFFEF89F0A4FCE5F0CE8924
:10012600F0A42EFFE435F0CD89F0A42DFEE435F0E1
:100136008067EF4E7005BD80D780C3EF8BF0A4AC0F
:10014600F0EE8BF0A42CFCE435F0F8EF8AF0A42C4A
:10015600E5F038FCE433CB8DF0A42CFCE5F03BF85D
:10016600EE8AF0A42CFCE5F038F8E433CF89F0A44D
:100176002CFCE5F038CF3400CE89F0A42FFFE5F053
:100186003EFEE433C98DF0A42EFEE5F039CD8AF0AB
:10019600A42FFFE5F03EFEE43DFD33D0E0FB500723
:1001A6000BBB000F020310EC2CFCEF33FFEE33FE0B
:0601B600ED33FD0202E83A
:1001BC00020310EC5D046005E859047003020306A9
:1001CC001202D1580460F6EC4860F2EC7004FDFEAB
:1001DC00FF22C860DB2481C85009C3986002500616
:1001EC0002030D9850CAF582E9294B4A7005AB827F
:1001FC000202FC75F0007C1A7880C3EF9BEE9AED3E
:10020C0099400DC3EF9BFFEE9AFEED99FDE842F08D
:10021C00DC23ACF0D0E0FFD0E0FED0E0FDAB8220E0
:10022C00E7101BEB60BAEC2CFCEF33FFEE33FEED6A
:10023C0033FD0202E8E803F830E705C0F075F00082
:10024C00EF2FFFEE33FEED33FD40B830E7C280AA4E
:10025C0075F020800E75F010800575F0087D007E1D
:10026C00007F003392D530D50312038CEC33401051
:10027C00EF33FFEE33FEED33FDEC33FCD5F0ED2226
:0E028C00E5F0247EA2D513CC92E7CDCEFF2262
:10029A00EDD2E7CD33EC3392D524814006E4FFFE5C
:1002AA00FDFC22FCE4CFCECDCC24E0501174FF80BB
:1002BA00EDC3CC13CCCD13CDCE13CECF13CF047058
:0702CA00F030D5DE02038CC9
:1002D100E9D2E7C933E833F892D5EDD2E7CD33EC73
:0702E10033FC5002B2D522EC
:1002E800EC30E7100FBF000C0EBE00080DBD000477
:1002F8000BEB6014A2D5EB13FCED92E7FD2274FF23
:10030800FCFDFEFF22E480F8A2D574FF13FC7D807B
:03031800E480EF8F
:03000000020810E3
:0C081000787FE4F6D8FD75815E02085781
:10031B00C2D530F707B2D563F0FF05F030E70CB26A
:10032B00D5F4048463F0FF05F080018430D502F42A
:02033B0004229A
:10033D00BB010689828A83E0225002E722BBFE02BE
:09034D00E32289828A83E49322F1
:10035600C2D5EC30E709B2D5E4C39DFDE49CFCEEC2
:1003660030E715B2D5E4C39FFFE49EFE12039AC39D
:10037600E49DFDE49CFC800312039A30D507C3E498
:060386009FFFE49EFE2231
:0E038C00C3E49FFFE49EFEE49DFDE49CFC2282
:10081C00020C92E493A3F8E493A34003F68001F254
:10082C0008DFF48029E493A3F85407240CC8C333DD
:10083C00C4540F4420C8834004F456800146F6DFAC
:10084C00E4800B01020408102040809003EFE47E4A
:10085C00019360BCA3FF543F30E509541FFEE493A1
:10086C00A360010ECF54C025E060A840B8E493A368
:10087C00FAE493A3F8E493A3C8C582C8CAC583CA93
:10088C00F0A3C8C582C8CAC583CADFE9DEE780BE4B
:010573000087
:10039A00BC000BBE0029EF8DF084FFADF022E4CC47
:1003AA00F875F008EF2FFFEE33FEEC33FCEE9DEC10
:1003BA00984005FCEE9DFE0FD5F0E9E4CEFD22ED56
:1003CA00F8F5F0EE8420D21CFEADF075F008EF2FA0
:1003DA00FFED33FD4007985006D5F0F222C398FD91
:0503EA000FD5F0EA222E
:00000001FF
