:10044100E4F593F594F591F592F595F596F5B1F5F9
:10045100B2F5B3F5B4F5C9F5CAF5CBF5CCF5E1F5CF
:02046100E22295
:0B050D001204411203E712013180FBD1
:10041500EF1FAA0670011E4A6021E4FCFDC3ED949E
:1004250009EC940050EAE4FBFA0BBB00010AEB640B
:0B043500554A70F50DBD00010C80E27F
:010440002299
:0A051800EF1F70011E144E70F72251
:1004A500E4FEEFA806088002C333D8FC30E704D287
:0D04B500A68002C2A6D2A7C2A70EBE08E50F
:0104C2002217
:10048500D2A5EF70047FF880027FFA1204A5ED541F
:10049500F0FF1204A5EDC454F0FF1204A5C2A52275
:1004F8001204DFFD600E7F01120485740129F9E4FE
:050508003AFA80EC222C
:1003E7007F327E00120415C2B7D2B77D30E4FF1208
:1003F70004857F327E001204157D0CE4FF1204850C
:0E0407007F327E001204157D01E4FF020485A1
:10046300BF01047D808013BF02047D90800CBF0315
:10047300047D888005BF04077D98E4FF120485028C
:0204830004F87B
:1000030061100000696E69740000000000000000C8
:1000130000000000002020D0A1C7F2BFD8D6C6CF71
:10002300B5CDB30000002020000000000000000058
:10003300000000000000002000000000000000009D
:10004300000000000000000020205365745F646915
:100053007374616E63650000004578706563743A7C
:100063003030000000000000000044697374616ECA
:1000730063653A00000000000000002020202020DB
:10008300202020202020206E6578740020204163EA
:1000930074696F6E3100000000000000003332000D
:1000A30000000000000000000000000000003333E7
:1000B30000000000000000000000000000000062DB
:1000C30061636B20202020202020206E657874003F
:1000D3002020416374696F6E32000000000000004D
:1000E30000343200000000000000000000000000A7
:1000F3000000343300000000000000000000000096
:100103000000006261636B20202020202020206EED
:0E011300657874000510000000000001160061
:1002F700E4F517F518F519F51A1203618F10E510D3
:1003070024FE601014601814603A2403704BE4F55F
:1003170016F51122E51570037515101515800A05D8
:1003270015E515B41003E4F515E51575F00A84E530
:10033700F0243090005DF0E51575F00A84243090C4
:10034700005CF022120361BF04FA7516027D01E416
:09035700FF120485E4F510C2C098
:01036000227A
:10013100E51614604214606E14606D146068240446
:1001410060030201FE7D01E4FF1204857F057E004C
:100151001204157B017A0079117F011204637FF487
:100161007E011204157D01E4FF1204857F057E00E6
:10017100120415751601227B017A0079447F011260
:1001810004637B017A0079557F021204637B017A53
:100191000079667F031204637B017A0079777F041B
:1001A1001204630202F780297B017A0079CC7F0176
:1001B1001204637B017A0079DD7F021204637B0103
:1001C1007A0079EE7F031204637B017A0079FF8064
:1001D100277B017A0079887F011204637B017A0011
:1001E10079997F021204637B017A0079AA7F031255
:0E01F10004637B017A0079BB7F041204632251
:0F012100010D00010E00010F0004097FBFDFEF89
:10028B00751B64E4F50D7409250DF8E6F5F865F8B2
:10029B00604E7F887E131204157409250DF8E665F0
:1002AB00F8603D85F80FE4F50EE50F20E0237409A7
:1002BB00250DF8E6B5F8F77F647E00120415740976
:1002CB00250DF8E6B5F8E7E50E25E025E0250DFF51
:1002DB0022E50FC313F50F050EE50EC3940440C9B9
:0B02EB00050DE50DC39404409D7FFF4E
:0102F60022E5
:1004C300E4F50D7409250DF8E6F5F865F860037F8A
:0C04D3000122050DE50DB404EA7F0022B3
:1003610020B2127F5A7E0012041520B208E4FF1257
:1003710003AE7F012220CA0D7F5A7E001204152090
:10038100CA037F022220C90D7F5A7E001204152064
:10039100C9037F032220C8127F5A7E001204152050
:0D03A100C808E4FF1203AE7F04227F002293
:1003AE00EF1460050470318024C2CD7F3C7E0012B4
:1003BE000415D2CD7F3C7E00120415C2CD7F3C7E4B
:1003CE0000120415D2CD7F3C7E00120415C2CD7FE3
:0903DE003C7E00120415D2CD2270
:030000000201FFFB
:0C01FF00787FE4F6D8FD75811B020246F3
:1004DF00BB010689828A83E0225002E722BBFE021B
:0904EF00E32289828A83E493224E
:10020B0002050DE493A3F8E493A34003F68001F2F7
:10021B0008DFF48029E493A3F85407240CC8C333F4
:10022B00C4540F4420C8834004F456800146F6DFC3
:10023B00E4800B0102040810204080900003E47E50
:10024B00019360BCA3FF543F30E509541FFEE493B8
:10025B00A360010ECF54C025E060A840B8E493A37F
:10026B00FAE493A3F8E493A3C8C582C8CAC583CAAA
:10027B00F0A3C8C582C8CAC583CADFE9DEE780BE62
:0101300000CE
:00000001FF
